{
  "contractName": "Dai",
  "abi": [
    {
      "inputs": [
        {
          "internalType": "address",
          "name": "owner",
          "type": "address"
        }
      ],
      "name": "balanceOf",
      "outputs": [
        {
          "internalType": "uint256",
          "name": "",
          "type": "uint256"
        }
      ],
      "stateMutability": "view",
      "type": "function"
    }
  ],
  "bytecode": "0x608060405234801561001057600080fd5b5060c18061001f6000396000f3fe6080604052348015600f57600080fd5b506004361060285760003560e01c806370a0823114602d575b600080fd5b603c60383660046056565b6050565b604051604791906082565b60405180910390f35b50600090565b6000602082840312156066578081fd5b81356001600160a01b0381168114607b578182fd5b9392505050565b9081526020019056fea26469706673582212200c3e7938341b013b25cb1339ca6c6c155c9a5fdc5d08f9c539d71bd186eaf09364736f6c63430008000033",
  "immutableReferences": {},
  "source": "pragma solidity ^0.8.0;\n\n\ncontract Dai {\n    function balanceOf(address owner) external view returns(uint) {}\n}",
  "sourcePath": "/Users/macbookpro4eric/Projects/blockchain/project5_uniswap/contracts/Dai.sol",
  "compiler": {
    "name": "solc",
    "version": "0.8.0+commit.c7dfd78e.Emscripten.clang"
  },
  "schemaVersion": "3.3.4",
  "updatedAt": "2021-04-14T11:08:13.516Z",
  "devdoc": {
    "kind": "dev",
    "methods": {},
    "version": 1
  },
  "userdoc": {
    "kind": "user",
    "methods": {},
    "version": 1
  }
}