{
  "contractName": "Router",
  "abi": [
    {
      "inputs": [
        {
          "internalType": "uint256",
          "name": "amountIn",
          "type": "uint256"
        },
        {
          "internalType": "uint256",
          "name": "amountOutMin",
          "type": "uint256"
        },
        {
          "internalType": "address[]",
          "name": "path",
          "type": "address[]"
        },
        {
          "internalType": "address",
          "name": "to",
          "type": "address"
        },
        {
          "internalType": "uint256",
          "name": "deadline",
          "type": "uint256"
        }
      ],
      "name": "swapExactTokensForTokens",
      "outputs": [
        {
          "internalType": "uint256[]",
          "name": "amounts",
          "type": "uint256[]"
        }
      ],
      "stateMutability": "nonpayable",
      "type": "function"
    },
    {
      "inputs": [
        {
          "internalType": "uint256",
          "name": "amountIn",
          "type": "uint256"
        },
        {
          "internalType": "address[]",
          "name": "path",
          "type": "address[]"
        }
      ],
      "name": "getAmountsOut",
      "outputs": [
        {
          "internalType": "uint256[]",
          "name": "amounts",
          "type": "uint256[]"
        }
      ],
      "stateMutability": "view",
      "type": "function"
    }
  ],
  "bytecode": "0x608060405234801561001057600080fd5b506102a0806100206000396000f3fe608060405234801561001057600080fd5b50600436106100365760003560e01c806338ed17391461003b578063d06ca61f14610064575b600080fd5b61004e610049366004610174565b610077565b60405161005b9190610210565b60405180910390f35b61004e6100723660046100a7565b610083565b60609695505050505050565b606092915050565b80356001600160a01b03811681146100a257600080fd5b919050565b600080604083850312156100b9578182fd5b8235915060208084013567ffffffffffffffff808211156100d8578384fd5b818601915086601f8301126100eb578384fd5b8135818111156100fd576100fd610254565b8381026040518582820101818110858211171561011c5761011c610254565b604052828152858101935084860182860187018b101561013a578788fd5b8795505b838610156101635761014f8161008b565b85526001959095019493860193860161013e565b508096505050505050509250929050565b60008060008060008060a0878903121561018c578182fd5b8635955060208701359450604087013567ffffffffffffffff808211156101b1578384fd5b818901915089601f8301126101c4578384fd5b8135818111156101d2578485fd5b8a602080830285010111156101e5578485fd5b6020830196508095505050506101fd6060880161008b565b9150608087013590509295509295509295565b6020808252825182820181905260009190848201906040850190845b818110156102485783518352928401929184019160010161022c565b50909695505050505050565b634e487b7160e01b600052604160045260246000fdfea26469706673582212209c5b7df12eb50135179d9c7a17b47517bc29f138fdb6c1119cf569ff92efa00b64736f6c63430008000033",
  "immutableReferences": {},
  "source": "pragma solidity ^0.8.0;\n\ncontract Router {\n\n    function swapExactTokensForTokens(\n        uint amountIn,\n        uint amountOutMin,\n        address[] calldata path,\n        address to,\n        uint deadline\n    ) external returns (uint[] memory amounts){}\n\n    function getAmountsOut(uint amountIn, address[] memory path) public view returns (uint[] memory amounts){}\n}",
  "sourcePath": "/Users/macbookpro4eric/Projects/blockchain/project5_uniswap/contracts/Router.sol",
  "compiler": {
    "name": "solc",
    "version": "0.8.0+commit.c7dfd78e.Emscripten.clang"
  },
  "schemaVersion": "3.3.4",
  "updatedAt": "2021-04-14T06:11:55.612Z",
  "devdoc": {
    "kind": "dev",
    "methods": {},
    "version": 1
  },
  "userdoc": {
    "kind": "user",
    "methods": {},
    "version": 1
  }
}