{
  "contractName": "Weth",
  "abi": [
    {
      "inputs": [],
      "name": "deposit",
      "outputs": [],
      "stateMutability": "payable",
      "type": "function"
    },
    {
      "inputs": [
        {
          "internalType": "address",
          "name": "spender",
          "type": "address"
        },
        {
          "internalType": "uint256",
          "name": "amount",
          "type": "uint256"
        }
      ],
      "name": "approve",
      "outputs": [],
      "stateMutability": "nonpayable",
      "type": "function"
    },
    {
      "inputs": [
        {
          "internalType": "address",
          "name": "owner",
          "type": "address"
        },
        {
          "internalType": "address",
          "name": "spender",
          "type": "address"
        }
      ],
      "name": "allowance",
      "outputs": [
        {
          "internalType": "uint256",
          "name": "",
          "type": "uint256"
        }
      ],
      "stateMutability": "view",
      "type": "function"
    },
    {
      "inputs": [
        {
          "internalType": "address",
          "name": "owner",
          "type": "address"
        }
      ],
      "name": "balanceOf",
      "outputs": [
        {
          "internalType": "uint256",
          "name": "",
          "type": "uint256"
        }
      ],
      "stateMutability": "view",
      "type": "function"
    }
  ],
  "bytecode": "0x608060405234801561001057600080fd5b506101af806100206000396000f3fe60806040526004361061003f5760003560e01c8063095ea7b31461004457806370a0823114610066578063d0e30db01461009c578063dd62ed3e146100a4575b600080fd5b34801561005057600080fd5b5061006461005f366004610147565b6100c4565b005b34801561007257600080fd5b506100866100813660046100f4565b6100c8565b6040516100939190610170565b60405180910390f35b6100646100ce565b3480156100b057600080fd5b506100866100bf366004610115565b6100d0565b5050565b50600090565b565b600092915050565b80356001600160a01b03811681146100ef57600080fd5b919050565b600060208284031215610105578081fd5b61010e826100d8565b9392505050565b60008060408385031215610127578081fd5b610130836100d8565b915061013e602084016100d8565b90509250929050565b60008060408385031215610159578182fd5b610162836100d8565b946020939093013593505050565b9081526020019056fea2646970667358221220b38dcc56fc9ce4a88fa650c2b929e4ce93b7e5c83df6a2fa7bb6bb97baaf574464736f6c63430008000033",
  "immutableReferences": {},
  "source": "pragma solidity ^0.8.0;\n\ncontract Weth {\n    function deposit() public payable {}\n    function approve(address spender, uint amount) external {}\n    function allowance(address owner, address spender) external view returns(uint) {}\n    function balanceOf(address owner) external view returns(uint) {}\n}",
  "sourcePath": "/Users/macbookpro4eric/Projects/blockchain/project5_uniswap/contracts/Weth.sol",
  "compiler": {
    "name": "solc",
    "version": "0.8.0+commit.c7dfd78e.Emscripten.clang"
  },
  "schemaVersion": "3.3.4",
  "updatedAt": "2021-04-14T11:08:13.519Z",
  "devdoc": {
    "kind": "dev",
    "methods": {},
    "version": 1
  },
  "userdoc": {
    "kind": "user",
    "methods": {},
    "version": 1
  }
}